:020000040800F2
:1000000000000120C5020008CD020008D10200084E
:1000100045030008490300089103000800000000A0
:10002000000000000000000000000000D9030008EC
:10003000DD03000800000000E1030008411B000888
:10004000F5030008F5030008F5030008F5030008B0
:10005000F5030008F5030008F5030008F5030008A0
:10006000F5030008F5030008F5030008F503000890
:10007000F5030008F5030008F5030008F503000880
:10008000F5030008F5030008F50300080000000070
:10009000000000000000000000000000F503000860
:1000A000F5030008F5030008F5030008F503000850
:1000B000F5030008F5030008F5030008F503000840
:1000C000F5030008F5030008F5030008F503000830
:1000D000F5030008F5030008F50300080000000020
:1000E000F5030008F5030008F50300080000000010
:1000F000000000000000000000000000F503000800
:1001000000000000F5030008F5030008F5030008EF
:1001100000000000000000000000000000000000DF
:10012000F5030008F5030008F5030008F5030008CF
:10013000F5030008000000000000000000000000BF
:10014000000000000000000000000000F5030008AF
:10015000F5030008F5030008F5030008F50300089F
:10016000F5030008F503000800000000000000008F
:10017000000000000000000000000000000000007F
:1001800000000000F503000800000000000000006F
:10019000F503000800B583B001F02AFA384B394A5C
:1001A0001360394A136039490CE00A684B6801F161
:1001B0000C04886803E01168196004330432984223
:1001C000F9D82146324B9942EFD32E4B1A68314B66
:1001D0009A4204D12C4B1A682F4B9A4200D0FEE76A
:1001E000274B2E4A13602E4A13602E4B0AE0194605
:1001F00051F8082B5B6802E00020106004329A423C
:10020000FAD30B46284A9342F1D3244B1B6813B907
:10021000234B1B6803B1FEE701F06AFC694601A8A5
:1002200000F0CCFF214C224B1C1BA410002504E045
:100230001E4B53F8253098470135AC42F8DC1D4C75
:100240001D4B1C1BA410002504E01A4B53F825304D
:1002500098470135AC42F8DC0099019801F050FC58
:100260000546164C164B1C1BA41004E0013C134B16
:1002700053F824309847002CF8DC284600F03AFF69
:10028000BABADECA0000002070000020F80300089F
:100290001004000878563412325476987400002006
:1002A0003402002010040008200400082004000884
:1002B000200400082004000820040008200400088E
:1002C0002004000808B5FFF765FF00BF00BEFEE789
:1002D0001EF0040F0CBFEFF30880EFF309807146A6
:1002E000414A10472DE9F04182B004468846134B3D
:1002F0005E6B9F6B9D6A1B6B13F0020F0DD00F4B53
:10030000DB6A002B09DA4BF6AB6101F0F5F920B19D
:100310004FF00042094BDA620CE0094801F00AF99B
:10032000CDF800803B4632462946204601F06CF964
:1003300000BEFEE702B0BDE8F08100BF00ED00E0C6
:10034000D82E000800BEFEE71EF0040F0CBFEFF32E
:100350000880EFF309807146244A10472DE9F041E7
:1003600082B004468846084B5E6B9F6B9D6A0748C7
:1003700001F0E0F8CDF800803B46324629462046A1
:1003800001F042F900BEFEE700ED00E0E82E0008B3
:100390001EF0040F0CBFEFF30880EFF309807146E5
:1003A000134A10472DE9F04182B004468846084BB5
:1003B0005E6B9F6B9D6A074801F0BCF8CDF800802A
:1003C0003B4632462946204601F01EF900BEFEE7B4
:1003D00000ED00E0F42E000800BEFEE700BEFEE7E0
:1003E00000BEFEE770470000E50200085D0300085C
:0803F000A503000800BEFEE7B2
:1003F80004310008000000207400002004310008C7
:1004080000000010000000107400002038020020D6
:080418000000001000000010BC
:1004200010B5044600F0DEFD064BA3FB003080094A
:1004300000F0A0F8002221464FF0FF3000F058F8FD
:10044000002010BDD34D621008B50B4B1A6842F462
:1004500000721A601A6842F480621A601A6842F4E4
:1004600080721A60032000F025F80F20FFF7D8FFF4
:1004700001F064FB002008BD003C0240024A136802
:1004800001331360704700BF2C020020014B186835
:10049000704700BF2C02002010B582B00190FFF71A
:1004A000F5FF0446FFF7F2FF001B019B9842F9D3CA
:1004B00002B010BD10B50446C31E042B03D9A421FD
:1004C000094801F02DF8094AD36823F4E0631B04BE
:1004D0001B0C240204F4E064234343F0BF6343F4A1
:1004E0000033D36010BD00BF4C2C000800ED00E0CD
:1004F00070B504460E4615460F2A03D9BC211A488A
:1005000001F00EF80F2E03D9BD21174801F008F8AD
:10051000164BDA68C2F30222C2F10701042928BF90
:100520000421131D062B01D9033A00E00022012308
:1005300003FA01F101393140914003FA02F2013A24
:100540002A400A43002C06DA04F00F041201D2B24A
:10055000074B1A5570BD1201D2B204F1604404F584
:10056000614484F8002370BD4C2C000800ED00E0CD
:1005700014ED00E00138B0F1807F0AD2064B5860DC
:10058000F021064A82F823100020986007221A60A2
:1005900070470120704700BF10E000E000ED00E070
:1005A00010B50446042805D020B140F2B311084824
:1005B00000F0B6FF042C05D1064A136843F004038B
:1005C000136010BD034A136823F00403136010BDC9
:1005D0004C2C000810E000E02DE9F04782B0804686
:1005E0000F46A84B984217D003F58063984213D06A
:1005F00003F5806398420FD003F5806398420BD0D7
:1006000003F58063984207D003F54063984203D016
:10061000C5219D4800F084FF3B881BB9C6219A483C
:1006200000F07EFF7B68012B22D9112B20D0022BFA
:100630001ED0122B1CD0954A934219D002F580127D
:10064000934215D002F58012934211D0A2F5F81210
:1006500093420DD002F58012934209D002F5801228
:10066000934205D0032B03D0C721874800F058FFE1
:10067000BB68022B03D9C821834800F051FF002535
:10068000F9E00124AC403E682640B44240F0F280DC
:100690007B68022B01D0122B3BD13B694BB3092B5A
:1006A00027D033B32BB323B31BB3012B21D020D0DE
:1006B000022B1ED01DD01CD0042B1AD019D018D05C
:1006C000052B16D015D0062B13D0052B11D0072BD8
:1006D0000FD00ED0082B0CD00A2B0AD0092B08D033
:1006E00007D00C2B05D00F2B03D0D921664800F082
:1006F00017FFEA08083258F8220005F007039900AE
:100700000F238B4020EA03003B698B40034348F8EA
:100710002230D8F800304FEA450A4FF0030909FAB1
:100720000AF96FEA090903EA09027B6803F0030387
:1007300003FA0AF31343C8F800307B685A1E012AF3
:1007400003D9112B01D0122B1BD1FB68032B03D92A
:10075000EC214D4800F0E4FED8F8083009EA030225
:10076000FB6803FA0AF31343C8F80830D8F80430DA
:1007700023EA04047B68C3F30013AB401C43C8F8AE
:100780000440D8F80C3009EA0309BB6803FA0AF3FD
:1007900049EA0303C8F80C307B6813F0805F69D026
:1007A000002301933A4B5A6C42F480425A645B6CCA
:1007B00003F480430193019BA9088A1C354B53F82D
:1007C000222005F003039B000F20984022EA00003E
:1007D0002C4A904511D002F5806290450FD002F569
:1007E000806290450DD002F5806290450BD002F5F5
:1007F0008062904509D1042208E0002206E001222F
:1008000004E0022202E0032200E0052202FA03F3E0
:10081000034302311F4A42F821301F4B1A68F34349
:1008200002EA0301786810F4803F01D046EA020131
:10083000194A1160526803EA0201786810F4003F17
:1008400001D046EA0201144A5160926803EA0201AB
:10085000786810F4801F01D046EA02010E4A9160C8
:10086000D2681340796811F4001F01D046EA0203F0
:10087000094AD36001350F2D7FF603AF02B0BDE802
:10088000F08700BF00000240802C0008000011101B
:100890000038024000380140003C014070B5064677
:1008A00015460C4621B940F2B111084800F038FE57
:1008B000012D04D94FF4D971044800F031FE0DB177
:1008C000B46170BD2404B46170BD00BF802C000809
:1008D00030B583B0044603680F2B03D9F6219C483A
:1008E00000F01EFE236813F0010F45D06368012B52
:1008F00005D9052B03D0FB21954800F011FE954B3F
:100900009B6803F00C03042B0AD0924B9B6803F006
:100910000C03082B0CD18F4B5B6813F4800F07D0AE
:100920008C4B1B6813F4003F26D0636823BBCCE1DB
:100930002279894B1A7063687BB1FFF7A7FD0546E2
:1009400005E0FFF7A3FD401B642800F2C081814B46
:100950001B6813F4003FF4D00EE0FFF797FD054647
:1009600005E0FFF793FD401B642800F2B281794B4C
:100970001B6813F4003FF4D1236813F0020F6AD010
:10098000E368012B04D940F22D11714800F0C8FD35
:1009900023691F2B04D94FF497716D4800F0C0FDF7
:1009A0006C4B9B6813F00C0F0AD06A4B9B6803F0EA
:1009B0000C03082B1BD1674B5B6813F4800F16D117
:1009C000644B1B6813F0020F03D0E368012B40F067
:1009D00082816048036823F0F8012369F82292FAC3
:1009E000A2F2B2FA82F293400B43036033E0E36871
:1009F000FBB10122594B1A60FFF748FD054605E09F
:100A0000FFF744FD401B022800F26781514B1B6831
:100A100013F0020FF4D04F48036823F0F801236964
:100A2000F82292FAA2F2B2FA82F293400B430360E8
:100A300011E00022494B1A60FFF728FD054605E04A
:100A4000FFF724FD401B022800F24981414B1B683F
:100A500013F0020FF4D1236813F0080F2ED063694E
:100A6000012B04D94FF4B771394800F059FD63697F
:100A700093B101223A4B1A60FFF708FD054605E0E5
:100A8000FFF704FD401B022800F22B81314B5B6F06
:100A900013F0020FF4D011E00022314B1A60FFF77F
:100AA000F5FC054605E0FFF7F1FC401B022800F2CB
:100AB0001A81284B5B6F13F0020FF4D1236813F0F7
:100AC000040F60D0A368012B06D9052B04D04FF486
:100AD000CC711F4800F024FD002301931D4B1A6CBC
:100AE00042F080521A641B6C03F080530193019B07
:100AF0001C4A136843F480731360FFF7C7FC054674
:100B000005E0FFF7C3FC401B022800F2EE80154B06
:100B10001B6813F4807FF4D0227A134B1A70A368F9
:100B20008BB1FFF7B3FC054607E0FFF7AFFC401BB6
:100B300041F28833984200F2DA80064B1B6F13F0C3
:100B4000020FF2D01FE0FFF7A1FC054616E000BF40
:100B5000C02C000800380240023802400000474222
:100B6000800E47420070004070380240FFF78EFC54
:100B7000401B41F28833984200F2BB80634B1B6FED
:100B800013F0020FF2D1A369022B04D940F2CD1168
:100B90005F4800F0C5FCA369002B00F0AC805B4A05
:100BA000926802F00C02082A00F0A780022B79D18B
:100BB000E3693BB1B3F5800F04D04FF4EB715448B7
:100BC00000F0AEFC236A3F2B04D940F2D711504805
:100BD00000F0A6FC636A323BB3F5BF7F04D94FF443
:100BE000EC714B4800F09CFCA36A022B0AD0042B4A
:100BF00008D0062B06D0082B04D040F2D911444867
:100C000000F08EFCE36A043B0B2B04D94FF4ED712A
:100C10003F4800F085FC00223E4B1A60FFF736FC8F
:100C2000054604E0FFF732FC401B022867D8374B2B
:100C30001B6813F0007FF5D1E169236A1943636AE9
:100C400047F6C07292FAA2F2B2FA82F293401943C6
:100C5000A36A5B085A1E4FF4403393FAA3F3B3FA26
:100C600083F302FA03F30B43E26A4FF0706191FAE7
:100C7000A1F1B1FA81F18A401343244A5360012261
:100C8000244B1A60FFF702FC044604E0FFF7FEFB6A
:100C9000001B022835D81D4B1B6813F0007FF5D0D0
:100CA000002031E000221B4B1A60FFF7EFFB0446E7
:100CB00004E0FFF7EBFB001B022824D8134B1B6852
:100CC00013F0007FF5D100201EE001201CE003207E
:100CD0001AE0032018E0012016E0032014E00320AE
:100CE00012E0032010E003200EE003200CE00320BC
:100CF0000AE0032008E0002006E0012004E00320D1
:100D000002E0032000E0032003B030BD00380240C1
:100D1000C02C00086000474270B504460D460368C9
:100D2000013B0E2B04D94FF40E71834800F0F8FB01
:100D3000072D04D940F239217F4800F0F1FB7F4BA9
:100D40001B6803F00F039D4208D9EBB27B4A137076
:100D5000136803F00F039D4240F0DB80236813F01B
:100D6000020F1DD0A368A3B1802B12D0902B10D0FE
:100D7000A02B0ED0B02B0CD0C02B0AD0D02B08D07B
:100D8000E02B06D0F02B04D04FF414716A4800F029
:100D9000C7FB6B498B6823F0F002A36813438B6099
:100DA000236813F0010F64D06368032B04D940F269
:100DB0005721614800F0B4FB6268012A05D1604BFD
:100DC0001B6813F4003F0FD1A5E0931E012B05D83B
:100DD0005B4B1B6813F0007F06D19EE0584B1B68ED
:100DE00013F0020F00F09B8055498B6823F003033A
:100DF00013438B60FFF74AFB06466368012B0FD154
:100E000007E0FFF743FB801B41F28833984200F272
:100E100088804B4B9B6803F00C03042BF1D128E036
:100E2000022B0ED106E0FFF731FB801B41F2883325
:100E3000984278D8424B9B6803F00C03082BF2D100
:100E400017E0032B10D13E4B9B68FFF71FFB801B65
:100E500041F288339842F6D967E0FFF717FB801B11
:100E600041F28833984262D8354B9B6813F00C0FDF
:100E7000F3D1324B1B6803F00F039D4207D2EAB255
:100E80002E4B1A701B6803F00F039D4251D123684B
:100E900013F0040F19D0E36883B1B3F5805F0DD070
:100EA000B3F5A05F0AD0B3F5C05F07D0B3F5E05F3C
:100EB00004D040F2B521204800F032FB20498B6875
:100EC00023F4E052E36813438B60236813F0080FA8
:100ED0001AD0236983B1B3F5805F0DD0B3F5A05F5D
:100EE0000AD0B3F5C05F07D0B3F5E05F04D04FF48C
:100EF0002F71114800F014FB114A936823F46043EA
:100F0000216943EAC10393600F20FFF789FA0020AB
:100F100070BD012070BD012070BD012070BD012099
:100F200070BD032070BD032070BD032070BD032081
:100F300070BD012070BD00BFC02C0008003C024005
:100F400000380240244B9B6803F00C03042B3FD075
:100F5000082B01D02148704710B41F4B586800F08F
:100F60003F005B6813F4800F10D01D4BB3FBF0F013
:100F7000194B5A6847F6C0710A4091FAA1F3B3FAC7
:100F800083F322FA03F303FB00F310E0134BB3FBEC
:100F9000F0F0114B5A6847F6C07402EA040194FA63
:100FA000A4F2B2FA82F221FA02F202FB00F30A4A38
:100FB000506800F440324FF4403090FAA0F0B0FA9C
:100FC00080F022FA00F001304000B3FBF0F001E0C5
:100FD0000348704710BC7047003802400024F400FA
:100FE00000127A0008B5FFF7ADFF084B9B6803F0CD
:100FF000F002F02393FAA3F3B3FA83F322FA03F394
:10100000034AD35CD840034B186008BD0038024047
:10101000B02C00080400002008B5024800F0A2FA35
:1010200000F002F8F02C000808B5034800F09AFA26
:10103000012000F05FF800BF042D000808B50D4B3B
:101040001B6813B90C4A0B4B1A600A4B1A68C31C75
:1010500023F00303134409498B4206D900F090FDA5
:101060000C2303604FF0FF3008BD02490B601046AF
:1010700008BD00BF780000203802002000FC0020DE
:1010800030B50025132420462946ABBE0446204631
:1010900030BD00BF38B5044600F072FD0546FFF7CD
:1010A000EFFF2860204638BDB0F1FF3F03D108B5FF
:1010B000FFF7F0FF08BD704710B504460B4B1868EA
:1010C00018B1836B0BB900F0A1FD132C09D8084BA4
:1010D00053F83430B3F1FF3F05D0054800EBC400AE
:1010E00010BD002010BD002010BD00BF6C0000200E
:1010F0000001002000B508B9044D00E0044D18249B
:1011000020462946ABBE0446FEE700BF260002008B
:10111000230002002DE9F04184B0234F01970326FC
:10112000039600230293012401AD20462946ABBE5D
:1011300080461E4BC3F80080019703960423029358
:1011400020462946ABBE8046194BC3F80080019764
:1011500003960823029320462946ABBE0446154B4E
:101160001C60B4F1FF3F03D1114B1A68114B1A6098
:10117000002305E04FF0FF310F4A42F833100133EE
:10118000132BF7DD0C4B094A12681A6000225A60D3
:10119000074909689960DA600649096819615A6166
:1011A00004B0BDE8F08100BF182D000880000020C9
:1011B0007C000020AC00002000010020F0B583B0CE
:1011C00006460D46304B00934F2301936F4615247E
:1011D00020463946ABBE0446002C42D12A4B83F848
:1011E0004F40009A2746214636E0E1B9274800687B
:1011F000184490F90100002803DB092B03D10120DA
:1012000002E0012000E0002028BB082C2ADC222B71
:1012100001D0272B01D101321F461D4B43F824205A
:101220000134012117E02FB19F4214D10021117028
:101230000F4610E015480068184490F90100002896
:1012400003DB092B03D1012302E0012300E000238B
:101250000BB100211170013292F90030002BC4D182
:1012600000E000242CB9084B00221A70084A1360D1
:101270000134074B002243F8242034602B60FFF731
:1012800049FF03B0F0BD00BFB000002008000020FF
:101290008400002030B585B001900291039201AD29
:1012A000062420462946ABBE04462046FFF7FCFE36
:1012B00005B030BD70B50E461546FFF7FDFE30B9DE
:1012C00000F05EFC092303604FF0FF3070BD044660
:1012D0002A4631460068FFF7DDFFB0F1FF3F03D03B
:1012E000281A63680344636070BD00BFF0B583B023
:1012F0000C461546FFF7E0FE30B900F041FC09232B
:1013000003604FF0FF304DE00646022D06D900F095
:1013100037FC162303604FF0FF3043E0012D13D15B
:101320004368E4180FD500F02BFC162303607368A4
:10133000002B2CDD002C2DDD00F022FC8B23036024
:101340004FF0FF302EE00025022D0FD1336802AFA1
:1013500047F8083D0C2528463946ABBE05462846C9
:10136000FFF7A2FEB0F1FF3F17D0044433680093AB
:1013700001946F460A2528463946ABBE05462846E5
:10138000FFF792FE00280BDB746020460AE04FF066
:10139000FF3007E04FF0FF3004E04FF0FF3001E096
:1013A0004FF0FF3003B0F0BD08B5FFF79FFF08BD59
:1013B00030B585B001900291039201AD052420461D
:1013C0002946ABBE04462046FFF76EFE05B030BD91
:1013D00070B50E461446FFF76FFE30B900F0D0FB33
:1013E000092303604FF0FF3070BD054622463146A9
:1013F0000068FFF7DDFF021E09DBA01A6B680344DB
:101400006B60944205D10020FFF744FE70BD4FF0A1
:10141000FF3070BD30B583B002AD45F8040D022435
:1014200020462946ABBE04462046FFF73DFE03B0EA
:1014300030BD00BF38B50446FFF73EFE30B900F0BE
:101440009FFB092303604FF0FF3038BD0546013C88
:10145000012C09D8094B9A681B699A4204D14FF0B4
:10146000FF330360002038BD2868FFF7D3FF18B9A9
:101470004FF0FF322A6038BD38BD00BF00010020A8
:1014800070B50C46FFF718FE30B900F079FB092360
:1014900003604FF0FF3070BD0646636843F40053AD
:1014A00063604FF48063E3620C2528463146ABBE8F
:1014B00005462846FFF7F8FDB0F1FF3F02D0206156
:1014C000002070BD4FF0FF3070BD00BF38B505463D
:1014D0000C463C220021204600F032FC21462846E2
:1014E000FFF7CEFF38BD00BF38B5FFF7E5FD28B9DF
:1014F00000F046FB09230360002038BD054609249F
:1015000020462946ABBE0446012C07D000F038FB2C
:101510000446FFF7B5FD2060002038BD012038BD2E
:1015200008B50A460146024800F004F8FFF77CFDC2
:10153000642D00080FB400B583B004AB53F8042B3E
:1015400001938021064800F0A1FD002803DD01463B
:10155000034800F049F803B05DF804EB04B07047AD
:10156000A001002010B5044600F05DFD01462046B4
:1015700000F03AF80121024800F036F810BD00BF33
:10158000542E00082DE9F04385B004460F4643561B
:1015900013BB042528462146ABBE04461FE0354652
:1015A000102E28BF1025002306E014F9011B04AA01
:1015B0001A4402F8101C0133AB42F6D304AA1344B8
:1015C000002203F8102CE9464FF004084046494633
:1015D000ABBE8046761B00E00E46002EDFD13846BB
:1015E00005B0BDE8F08300BF08B5FFF7CBFF08BD2D
:1015F00008B500F001F9024B024A9A6008BD00BF2D
:1016000000ED00E000000008F8B504460D4617465E
:101610001E462648FFF78EFF21682548FFF78AFF00
:1016200061682448FFF786FFA1682348FFF782FF1F
:10163000E1682248FFF77EFF21692148FFF77AFF22
:1016400061692048FFF776FFA1691F48FFF772FF25
:10165000E1691E48FFF76EFF1D48FFF76BFF294643
:101660001C48FFF767FF1C4CE16A1C48FFF762FF4C
:10167000216B1B48FFF75EFFE16B1A48FFF75AFF2B
:1016800015F0800F03D039461748FFF753FF15F4C4
:10169000004F03D031461548FFF74CFF1448FFF7C1
:1016A00049FF06991348FFF745FFF8BDBC2D000818
:1016B000CC2D0008DC2D0008EC2D0008FC2D0008C6
:1016C0000C2E00081C2E00082C2E00083C2E0008B2
:1016D0004C2E0008582E000800ED00E0682E00088F
:1016E000782E0008882E0008982E0008A82E0008E2
:1016F000B82E0008C02E000838B583691B888B42BD
:101700006FD1044603684568013B302B6BD8DFE896
:1017100003F0421D63635A2C2F2919196A191919EC
:1017200019193219206A19236A356A6A6A6A6A6A5B
:101730006A6A6A6A6A6A6A6A6A6A6A6A6A6A6A6A09
:101740006A1919004FF0FF33036045E0002303607E
:1017500042E0002303603FE000232B606B60AB603E
:10176000EB6039E00023036036E0AB68036033E0F0
:101770000023036030E0002303602DE0BFF34F8FB0
:101780001A49CA6802F4E062194B1343CB60BFF3F5
:101790004F8F00BFFDE71749286800F03AFC70B989
:1017A0006B6813B90123236016E0042B02D10223D6
:1017B000236011E0082B02D1032323600CE04FF0DB
:1017C000FF33236008E02B68023B012B02D8002383
:1017D000036001E0AB680360A3690233A3610120E9
:1017E00038BD002038BD002038BD00BF00ED00E04E
:1017F0000400FA05182D00080C4B1A6842F001028B
:101800001A60002199601A6822F0847222F48032F2
:101810001A60074A5A601A6822F480221A60D96056
:101820004FF00062034B9A60704700BF00380240DF
:101830001030002400ED00E0224B9B6803F00C0305
:10184000042B07D0082B09D0002B2DD11E4A1F4B8B
:101850001A602CE01E4A1D4B1A6028E0194B5A688A
:101860005B6803F03F0312F4800F09D0184AB2FB03
:10187000F3F2144B5B68C3F3881303FB02F208E036
:10188000114AB2FBF3F30F4A5168C1F3881101FB0F
:1018900003F20C4B5B68C3F3014301335B00B2FB03
:1018A000F3F30A4A136002E0074A084B1A60054B3B
:1018B0009B68C3F30313074AD15C044A1368CB4007
:1018C00013607047003802400024F4000400002038
:1018D00000127A00042F0008014B0360704700BF1C
:1018E000542F000820B108B503685B68984708BD0D
:1018F000704700BF014B0360704700BF1C2F0008FA
:101900000020704710B50446FFF7E6FF204600F0C0
:101910001BF9204610BD00BF10B50446024B036002
:1019200000F012F9204610BD1C2F000810B5046904
:1019300023681B682046984714B1204600F004F93C
:1019400010BD00BF08B5034B036008B100F0FCF800
:1019500008BD00BF1C2F000830B583B00446084600
:101960000D4B2360002501950C4B196B41F00101D3
:1019700019631B6B03F001030193019B6260012358
:10198000A360E56003232361A061211DFEF724FE0F
:10199000204603B030BD00BF542F0008003802407D
:1019A00008B50A46017781888069FEF777FF08BD90
:1019B00038B504460D46202000F0C8F82560606068
:1019C000204638BD38B504460D46142000F0BEF858
:1019D00025606060204638BDF0B589B004460D46EC
:1019E000174600230360436001A904A8FFF7E0FF46
:1019F000059E26B13A4629463046FFF7ADFF002343
:101A0000059302A906A8FFF7DDFF079B2BB1012272
:101A10005A609A600F4A1A601E6165680395636098
:101A200026607DB16B68013B6B605BB92B689B687E
:101A300028469847AB68013BAB601BB92B68DB6855
:101A400028469847059808B100F07EF8204609B06E
:101A5000F0BD00BF382F000870B594B00024019489
:101A6000204B1A6C42F080521A641B6C03F08053B6
:101A70000193019B02941C4B1A6842F440421A6085
:101A80001B6803F440430293029B012308930993CC
:101A90004FF480030F93082310934FF4A87311930E
:101AA000042612960723139302250E9508A8FEF725
:101AB0000FFF0F230393049505944FF4805306936F
:101AC0000794294603A8FFF727F9FFF78BFA074B7E
:101AD000A3FB00308009FEF74DFD3046FEF760FDA8
:101AE00014B070BD0038024000700040D34D621049
:101AF00008B5FEF7A9FCFFF7AFFFFFF79DFE08BD95
:101B000000B583B0FFF7F4FF20220A496846FFF7CB
:101B100063FF01210098FFF743FF01210098FFF7C1
:101B20003FFF4FF47A70FEF7B7FC034800F016FA57
:101B3000F3E700BF000002405C2F0008704700BFC1
:101B400008B5FEF79BFC08BD00F0F2B810B5002800
:101B500014BF04460124204600F0E2F830B900F03A
:101B600007F808B9FFF760FA8047F4E710BD0000F6
:101B7000024B1868BFF35F8F704700BF2002002040
:101B8000014B1868704700BF6C000020014900F04D
:101B9000A9B800BF81230008002310B504460360E4
:101BA0004360836081814366C281036143618361D5
:101BB000194608225C3000F0C3F8054B6362054B00
:101BC000A362054BE362054B2462236310BD00BF93
:101BD0008D1F0008AF1F0008E71F00080B2000083A
:101BE00070B568234D1E5D430E4605F1740100F08B
:101BF000FDF8044640B1002180E842000C30A060AE
:101C000005F1680200F09CF8204670BD836910B5AC
:101C1000044633BB8364C3640365124B124A1B68DA
:101C20008262984204BF0123836100F01FF8606064
:101C3000204600F01BF8A060204600F017F80022B4
:101C4000E06004216068FFF7A7FF01220921A06876
:101C5000FFF7A2FF02221221E068FFF79DFF012398
:101C6000A36110BDCC3000088D1B0008F8B51C4BDB
:101C70001E68B369074613B93046FFF7C7FF4836F9
:101C8000B4687368013B04D4B4F90C507DB1683476
:101C9000F8E733680BB13668F2E704213846FFF7FE
:101CA0009FFF30600028F6D10C233B60F8BD4FF653
:101CB000FF73E3810123A38165662560A5606560EC
:101CC00025616561A5610822294604F15C0000F0E8
:101CD00037F86563A563A564E5642046F8BD00BFD9
:101CE000CC3000082DE9F8438046894600F14804CD
:101CF000002694B1A5686768013F0CD4AB89012B1D
:101D000007D9B5F90E30013303D029464046C847FC
:101D100006436835F0E72468EBE73046BDE8F88312
:101D2000024B0146186800F061B800BF6C0000204B
:101D3000024B0146186800F00BB800BF6C00002091
:101D400002440346934202D003F8011BFAE77047AE
:101D500038B50546002946D051F8043C0C1F002B2D
:101D6000B8BFE41800F0A8FB1F4A1368114613B966
:101D70006360146032E0A3420ED92268A018834247
:101D800004BF18685B68636004BF121822600C60AF
:101D900024E0A24203D813465A68002AF9D11868F1
:101DA0001918A1420BD121680144581882421960C8
:101DB00014D1106852685A60014419600EE002D9CB
:101DC0000C232B600AE021686018824204BF10686F
:101DD0005268626004BF091821605C602846BDE853
:101DE000384000F06ABB38BD2802002070B5CD1C19
:101DF00025F0030508350C2D38BF0C25002D0646AF
:101E000001DBA94202D90C23336046E000F054FB09
:101E1000234B1C681A462146A1B10B685B1B0ED4EC
:101E20000B2B03D90B60CC18CD501EE08C420DBF9C
:101E300063684B686360136018BF0C4615E00C467E
:101E40004968E9E7174C23681BB9304600F08EF863
:101E500020602946304600F089F8431C18D0C41C85
:101E600024F00304A0420DD12560304600F025FB8C
:101E700004F10B00231D20F00700C31A0ED05A42B4
:101E8000E25070BD211A304600F070F80130EBD1FD
:101E90000C233360304600F010FB002070BD00BF03
:101EA000280200202402002070B50E46054618B115
:101EB00083690BB9FFF7AAFEAB69AC6813B9284672
:101EC000FFF7A4FE224B9C4201D16C6808E0214B35
:101ED0009C4201D1AC6803E01F4B9C4208BFEC68F8
:101EE000A3891B0701D523693BB92146284600F089
:101EF00041F910B14FF0FF3070BD013EA36816F8F4
:101F0000011F013BA36091B1002B04DAA269934247
:101F100006DB0A2904D023685A1C22601970EDE7F9
:101F20002246284600F0C0F80130E7D1E2E7002B56
:101F300008DA22460A21284600F0B6F80130D9D046
:101F40000A2070BD23680A205A1C2260187070BDD8
:101F50006830000888300008A8300008024B0146AD
:101F60001868FFF7A1BF00BF6C00002038B5064C11
:101F70000023054608462360FFF760F8431C02D1A2
:101F8000236803B12B6038BD3002002010B50C4629
:101F9000B1F90E1000F07CFD0028ABBF636DA38982
:101FA0001B1823F48053ACBF6365A38110BD2DE9DA
:101FB000F0411F468B89DB0505460C46164605D5C4
:101FC00002230022B1F90E1000F004FAA389B4F93B
:101FD0000E1023F48053A38132463B462846BDE8C9
:101FE000F04100F0B5B810B50C46B1F90E1000F094
:101FF000F1F9431CA38915BF606523F4805343F4B2
:102000008053A38118BFA38110BDB1F90E1000F059
:102010001FB910F8012B11F8013B012A28BF9A4281
:10202000F7D0D01A7047034613F8012B002AFBD1D2
:10203000181A0138704730B5141E05469BB0184673
:1020400004DA8B232B604FF0FF301DE04FF4027356
:10205000ADF80C3014BF04F1FF332346029305930F
:102060004FF6FF7300910491ADF80E3002461E9BAF
:102070006946284600F07CFA431CBCBF8B232B60CA
:1020800014B1009B00221A701BB030BD07B500933D
:1020900013460A46014603480068FFF7CCFF03B029
:1020A0005DF804FB6C000020F8B50F4614460646A8
:1020B00018B183690BB9FFF7A9FD224B9C4201D1EE
:1020C000746808E0204B9C4201D1B46803E01F4BC8
:1020D0009C4208BFF468A369A360A3891A0709D5C5
:1020E00023693BB123682069181A63699842FDB2DD
:1020F0000FDB08E02146304600F03CF80028F1D024
:102100004FF0FF30F8BD2146304600F039F9002885
:10211000F6D1A368013BA36023685A1C22601F709C
:102120006269431C934204D0A389DB0707D50A2DBB
:1021300005D12146304600F023F90028E0D1284699
:10214000F8BD00BF6830000888300008A8300008DB
:1021500038B5074C054608461146002222601A464B
:10216000FFF736F9431C02D1236803B12B6038BD59
:1021700030020020324B70B51D6806460C4625B172
:10218000AB6913B92846FFF741FD2E4B9C4201D1A4
:102190006C6808E02C4B9C4201D1AC6803E02B4BEF
:1021A0009C4208BFEC68B4F90C309AB215071DD4F4
:1021B000D00602D4092232603AE0510712D5616B91
:1021C00041B104F14403994202D03046FFF7C0FD0B
:1021D00000236363A38923F02403A38100236360A6
:1021E00023692360A38943F00803A38123694BB9C2
:1021F000A38903F42073B3F5007F03D02146304652
:1022000000F01EF9A28912F0010305D00023A3609B
:1022100063695B42A36103E0920758BF6369A360EF
:1022200023695BB9B4F90C3003F0800080B230B19F
:1022300043F04003A3814FF0FF3070BD002070BD1C
:102240006C0000206830000888300008A8300008C2
:1022500038B5064C0023054608462360FFF7EAF828
:10226000431C02D1236803B12B6038BD300200202B
:102270008A892DE9F041054610070C4659D44B6870
:10228000002B02DC0B6C002B17DDE66AAEB102F40A
:102290008052002392B22F682B600AB1606D15E066
:1022A000216A01232846B047411C0FD12B686BB12E
:1022B0001D2B01D0162B03D12F600020BDE8F0812B
:1022C000A38943F04003A381BDE8F081A3895A07A5
:1022D00005D56368C01A636B0BB1236CC01A002369
:1022E0000246E66A216A2846B047431CA38906D104
:1022F00029681D293AD8214ACA40D60736D5002276
:102300006260D9042269226004D5421C01D12B6885
:1023100003B96065616B2F600029CED004F14403DE
:10232000994202D02846FFF713FD00206063BDE804
:10233000F0810F69002FC0D093070E6808BF4B696A
:102340000F6018BF0023C7EB06088B6002E007444C
:10235000C0EB0808B8F1000FAFDD43463A46216AEA
:10236000A66A2846B0470028F1DCA38943F0400361
:10237000A3814FF0FF30BDE8F08100BF0100402095
:1023800038B50B6905460C46DBB118B183690BB94A
:10239000FFF73CFC0C4B9C4201D16C6808E00B4BF6
:1023A0009C4201D1AC6803E0094B9C4208BFEC6839
:1023B000B4F90C302BB121462846BDE83840FFF770
:1023C00057BF002038BD00BF6830000888300008C3
:1023D000A830000838B5074C0546084611460022CB
:1023E00022601A46FEF7E0FF431C02D1236803B1C6
:1023F0002B6038BD3002002070B50E46B1F90E10CA
:10240000002990B014461D4606DA00232B60B389DC
:102410001A060ED540230EE001AA00F04BFB00285F
:10242000F3DB029A02F47042A2F500535A425A4179
:102430002A604FF480630020236010B070BD00005C
:102440008B8973B59E0705460C4610D401AB6A46CE
:10245000FFF7D2FF009906462846FFF7C7FC68B988
:10246000B4F90C309A0522D443F00203A38104F19D
:102470004703236023610123636118E00D4BAB62C6
:10248000A389206043F08003A381009B6361019BCB
:1024900020614BB1B4F90E10284600F01DFB18B1B5
:1024A000A38943F00103A381A0893043A08102B036
:1024B00070BD00BF8D1B0008704770472DE9F047C5
:1024C0008E689E4282460C46914698463ED88A893E
:1024D00012F4906F3AD0256809696F1A6569022372
:1024E00005EB450595FBF3F57B1C43449D4238BF46
:1024F0001D4653050FD52946FFF778FC064698B1CF
:102500003A46216900F04CFBA38923F4906343F021
:102510008003A38113E02A4600F068FB064670B9E9
:1025200021695046FFF714FC0C23CAF80030A38938
:1025300043F04003A3814FF0FF30BDE8F0872661F0
:1025400065613E44ED1B2660A5604646464528BFB2
:10255000464632464946206800F02DFBA3689B1B87
:10256000A36023681E4426600020BDE8F0870000B9
:102570002DE9F04F9DB0804603938B891C060D46D4
:1025800016460DD50B695BB94021FFF72FFC28607B
:10259000286118B90C23C8F80030CDE040236B61E6
:1025A0000023099320238DF82930DFF89CB13023D4
:1025B0008DF82A3037463C4614F8013B1BB9B7EB7F
:1025C000060910D003E0252BF9D02746F3E74B4648
:1025D000324629464046FFF771FF013000F0A780E0
:1025E000099B4B4409933B78002B00F0A08000230B
:1025F0004FF0FF3204930793059206938DF8533002
:102600001A930126052221784E4800F079FA671CBA
:10261000049B38B14B4A801A06FA00F01843049024
:102620003C46EFE7D90644BF20228DF853201A0715
:1026300044BF2B228DF8532022782A2A03D0079AF0
:1026400000210A200BE0039A111D12680391002A51
:1026500010DA524243F00200079204900BE0274642
:1026600001343B78303B092B03D800FB02320121B7
:10267000F5E701B107923B782E2B1ED17B782A2BF0
:102680000AD1039B1A1D1B680392002BB8BF4FF0A1
:10269000FF330237059310E000230593781C194699
:1026A0000A24074601303A78303A092A03D804FB55
:1026B00001210123F5E703B105910322397822486E
:1026C00000F01EFA40B14023CBEB000003FA00F00B
:1026D000049B18430490013739781C488DF8281062
:1026E00006227E1C00F00CFA88B1194B33B9039B0B
:1026F000073323F007030833039314E003AB00937D
:102700002A46144B04A94046AFF3008007E003AB10
:1027100000932A460F4B04A9404600F093F8B0F10D
:10272000FF3F824603D0099B5344099342E7AB899C
:102730005B0601D4099801E04FF0FF301DB0BDE801
:10274000F08F00BFD0300008D6300008DA30000823
:1027500000000000BD2400082DE9F04791461F4607
:102760000A698B68DDF820809342B8BF1346C9F828
:10277000003091F8432006460C4612B10133C9F8E7
:1027800000302368990642BFD9F800300233C9F8F7
:102790000030256815F0060510D104F1190A07E08C
:1027A0000123524639463046C04701301AD0013520
:1027B000E368D9F800209B1A9D42F1DB94F843307E
:1027C0002268003318BF012392060FD5E1185A1C66
:1027D000302081F84300224494F8451082F84310D9
:1027E000023303E04FF0FF30BDE8F08704F143020D
:1027F00039463046C0470130F4D02268D9F800503D
:10280000E36802F00602042A08BF5D1B2269A36880
:102810000CBF25EAE57500259342C4BF9B1AED184D
:102820004FF000091A344D4509D00123224639469C
:102830003046C0470130D5D009F10109F3E7002047
:10284000BDE8F0872DE9F04317460A7E85B06E2A71
:10285000984606460C460C9B01F1430E00F0AE80F4
:1028600011D8632A22D009D8002A00F0BB80582A48
:1028700040F0CA8081F84520834955E0642A1ED083
:10288000692A1CD0C0E0732A00F0B08009D86F2AF2
:102890002ED0702A40F0B8800A6842F020020A6008
:1028A0003EE0752A24D0782A3AD0ADE01A6801F1CA
:1028B0004205111D1960136884F84230A8E02168B0
:1028C0001A6811F0800F02D0111D196008E011F094
:1028D000400F02F10401196002D0B2F9003000E0AB
:1028E0001368002B3CDA2D225B4284F8432037E04A
:1028F00021681A6811F0800F02D0111D196007E0DD
:1029000011F0400F02F10401196001D0138800E0BA
:102910001368227E5C496F2A14BF0A2208221BE03A
:1029200078225A4984F845202268186812F0800FEE
:1029300000F104051D6003D1550601D5038800E0B0
:102940000368D00744BF42F0200222601BB922680E
:1029500022F0200222601022002084F8430001E0CF
:1029600049490A226568A560002D08DB206820F02F
:10297000040020602BB9002D7DD175460CE0002BA2
:1029800079D07546B3FBF2F002FB1033CB5C05F84F
:10299000013D03460028F5D1082A0BD12368DA0748
:1029A00008D5236962689A42DEBF302305F8013CEE
:1029B00005F1FF35C5EB0E0323612EE008681A68A8
:1029C000496910F0800F03D0101D1860136808E0EB
:1029D00010F0400F02F104001860136801D0198054
:1029E00000E0196000232361754616E01A68111D86
:1029F0001960156862680021284600F081F808B166
:102A0000401B6060636804E004F1420584F84220E2
:102A100001232361002384F84330CDF800803B4636
:102A200003AA21463046FFF797FE013002D14FF04E
:102A3000FF3026E023692A4639463046C047013038
:102A4000F5D023689B0710D5002504F1190907E08C
:102A500001234A4639463046C0470130E7D00135A8
:102A6000E368039A9B1A9D42F2DBE068039B98425D
:102A7000B8BF184605E00B7884F8423004F14205EF
:102A80008AE705B0BDE8F083E1300008F2300008C5
:102A900038B5074C054608461146002222601A4602
:102AA000FEF708FC431C02D1236803B12B6038BD3C
:102AB0003002002038B5074C002305460846114671
:102AC0002360FEF703FD431C02D1236803B12B6092
:102AD00038BD00BF3002002038B5064C0023054643
:102AE00008462360FEF700FD431C02D1236803B1B2
:102AF0002B6038BD30020020000000000000000004
:102B000001F0FF01102A2BDB10F0070F08D010F89E
:102B1000013B013A8B422DD010F0070F42B3F6D1A2
:102B2000F0B441EA012141EA014122F007047FF0BB
:102B300000070023F0E80256083C85EA010586EA12
:102B4000010685FA47F5A3FA87F586FA47F6A5FA4E
:102B500087F68EB9EED1F0BC01F0FF0102F007025A
:102B600032B110F8013B013A83EA010313B1F8D105
:102B70000020704701387047002D06BF35460338E6
:102B8000073815F0010F07D1013015F4807F02BF1F
:102B9000013015F4C03F0130F0BC0138704700BF70
:102BA00010B5431E0A44914204D011F8014B03F8BA
:102BB000014FF8E710BD884210B501EB020301D8C0
:102BC000421E0BE09842FBD28118D21AD34204D0A5
:102BD00013F8014D01F8014DF8E710BD994204D0FA
:102BE00011F8014B02F8014FF8E710BDF8B50746A0
:102BF00015460E4621B91146BDE8F840FFF7F6B874
:102C00001AB9FFF7A5F82846F8BD00F015F8854277
:102C10000ED929463846FFF7E9F8044650B1314647
:102C20002A46FFF7BDFF31463846FFF791F801E02D
:102C30003046F8BD2046F8BD51F8040C0028BEBF50
:102C4000091851F8043CC018043870472E2E2F7311
:102C5000797374656D2F7372632F73746D3332667D
:102C6000342D68616C2F73746D3332663478785FFD
:102C700068616C5F636F727465782E63000000009A
:102C80002E2E2F73797374656D2F7372632F737487
:102C90006D333266342D68616C2F73746D33326618
:102CA0003478785F68616C5F6770696F2E630000CD
:102CB00000000000010203040102030406070809E2
:102CC0002E2E2F73797374656D2F7372632F737447
:102CD0006D333266342D68616C2F73746D333266D8
:102CE0003478785F68616C5F7263632E6300000004
:102CF0005F5F6378615F707572655F766972747526
:102D0000616C000061626F727428292C20657869FB
:102D100074696E672E2E2E003A7474002F746D70D5
:102D2000000000002C2066756E6374696F6E3A2097
:102D300000000000617373657274696F6E20222554
:102D40007322206661696C65643A2066696C65204F
:102D5000222573222C206C696E652025642573253D
:102D6000730A00006173736572745F706172616DE4
:102D70002829206661696C65643A2066696C652063
:102D8000222573222C206C696E652025640A0000C0
:102D90006D61696E28617267633D25642C206172E4
:102DA00067763D5B000000002C2000002225732286
:102DB000000000005D293B0A0000000053746163BD
:102DC0006B206672616D653A0A0000002052302067
:102DD0003D2020253038580A0000000020523120C4
:102DE0003D2020253038580A0000000020523220B3
:102DF0003D2020253038580A0000000020523320A2
:102E00003D2020253038580A000000002052313281
:102E1000203D20253038580A00000000204C522068
:102E20003D2020253038580A000000002050432063
:102E30003D2020253038580A000000002050535211
:102E4000203D20253038580A000000004653522FFC
:102E50004641523A0A0000002043465352203D208A
:102E600020253038580A00002048465352203D2083
:102E700020253038580A00002044465352203D2077
:102E800020253038580A00002041465352203D206A
:102E900020253038580A0000204D4D464152203D33
:102EA00020253038580A00002042464152203D205B
:102EB00020253038580A00004D6973630A0000006D
:102EC000204C522F4558435F52455455524E3D2099
:102ED000253038580A0000005B486172644661750D
:102EE0006C745D0A000000005B4275734661756C8E
:102EF000745D0A005B55736167654661756C745D4E
:102F00000A000000000000000000000001020304AD
:102F10000607080900000000000000000000000093
:102F20000000000019100008E5180008191000083A
:102F30000000000000000000F51800081919000842
:102F40002D190008451900080119000800000000AB
:102F500000000000D9180008051900086C6F6F7098
:102F600000000000002020202020202020202828F1
:102F70002828282020202020202020202020202039
:102F80002020202020881010101010101010101079
:102F900010101010100404040404040404040410A9
:102FA0001010101010104141414141410101010137
:102FB0000101010101010101010101010101010101
:102FC000101010101010424242424242020202020D
:102FD00002020202020202020202020202020202D1
:102FE0001010101020000000000000000000000081
:102FF00000000000000000000000000000000000D1
:1030000000000000000000000000000000000000C0
:1030100000000000000000000000000000000000B0
:1030200000000000000000000000000000000000A0
:103030000000000000000000000000000000000090
:103040000000000000000000000000000000000080
:103050000000000000000000000000000000000070
:103060000000000000000000000000000000000060
:103070000000000000000000000000000000000050
:103080000000000000000000000000000000000040
:103090000000000000000000000000000000000030
:1030A0000000000000000000000000000000000020
:1030B0000000000000000000000000000000000010
:1030C0000000000000000000430000000C00002091
:1030D000232D302B2000686C4C0065666745464701
:1030E0000030313233343536373839414243444584
:1030F00046003031323334353637383961626364F3
:0331000065660001
:10310400785634120024F400642F000800000000F4
:103114006830000888300008A8300008000000006B
:10312400000000000000000000000000C83000089B
:10313400000000000000000000000000000000008B
:10314400000000000000000000000000000000007B
:10315400000000000000000000000000000000006B
:103164000000000000000000000000000C0000202F
:0431740032547698C3
:040000050800019559
:00000001FF
